{
  "address": "0xe7f1725E7734CE288F8367e1Bb143E90bb3F0512",
  "abi": [
    {
      "inputs": [
        {
          "internalType": "address",
          "name": "priceFeedAddress",
          "type": "address"
        }
      ],
      "stateMutability": "nonpayable",
      "type": "constructor"
    },
    {
      "inputs": [],
      "name": "FundMe__NotOwner",
      "type": "error"
    },
    {
      "inputs": [],
      "name": "MINIMUM_USD",
      "outputs": [
        {
          "internalType": "uint256",
          "name": "",
          "type": "uint256"
        }
      ],
      "stateMutability": "view",
      "type": "function"
    },
    {
      "inputs": [],
      "name": "fund",
      "outputs": [],
      "stateMutability": "payable",
      "type": "function"
    },
    {
      "inputs": [
        {
          "internalType": "address",
          "name": "funder",
          "type": "address"
        }
      ],
      "name": "getAddressToAmountFunded",
      "outputs": [
        {
          "internalType": "uint256",
          "name": "",
          "type": "uint256"
        }
      ],
      "stateMutability": "view",
      "type": "function"
    },
    {
      "inputs": [
        {
          "internalType": "uint256",
          "name": "index",
          "type": "uint256"
        }
      ],
      "name": "getFunders",
      "outputs": [
        {
          "internalType": "address",
          "name": "",
          "type": "address"
        }
      ],
      "stateMutability": "view",
      "type": "function"
    },
    {
      "inputs": [],
      "name": "getOwner",
      "outputs": [
        {
          "internalType": "address",
          "name": "",
          "type": "address"
        }
      ],
      "stateMutability": "view",
      "type": "function"
    },
    {
      "inputs": [],
      "name": "getPriceFeed",
      "outputs": [
        {
          "internalType": "contract AggregatorV3Interface",
          "name": "",
          "type": "address"
        }
      ],
      "stateMutability": "view",
      "type": "function"
    },
    {
      "inputs": [],
      "name": "getVersion",
      "outputs": [
        {
          "internalType": "uint256",
          "name": "",
          "type": "uint256"
        }
      ],
      "stateMutability": "view",
      "type": "function"
    },
    {
      "inputs": [],
      "name": "withdraw",
      "outputs": [],
      "stateMutability": "payable",
      "type": "function"
    }
  ],
  "transactionHash": "0x62e342a8cc9991ea043693cc62413fa1a3a9ba2690dc6c3e42c7beb6fae4543a",
  "args": [
    "0x5FbDB2315678afecb367f032d93F642f64180aa3"
  ],
  "numDeployments": 1,
  "solcInputHash": "18e84f47948f4a9bdb5cbff24ae3b94c",
  "bytecode": "0x60a06040523480156200001157600080fd5b50604051620011a8380380620011a8833981810160405281019062000037919062000120565b3373ffffffffffffffffffffffffffffffffffffffff1660808173ffffffffffffffffffffffffffffffffffffffff1660601b8152505080600260006101000a81548173ffffffffffffffffffffffffffffffffffffffff021916908373ffffffffffffffffffffffffffffffffffffffff1602179055505062000152565b600080fd5b600073ffffffffffffffffffffffffffffffffffffffff82169050919050565b6000620000e882620000bb565b9050919050565b620000fa81620000db565b81146200010657600080fd5b50565b6000815190506200011a81620000ef565b92915050565b600060208284031215620001395762000138620000b6565b5b6000620001498482850162000109565b91505092915050565b60805160601c6110296200017f600039600081816102f3015281816104e901526105c601526110296000f3fe60806040526004361061007b5760003560e01c80636b69a5921161004e5780636b69a5921461012f578063893d20e81461015a5780639e87a5cd14610185578063b60d4288146101b05761007b565b80630343fb25146100805780630d8e6e2c146100bd5780633a7b6c74146100e85780633ccfd60b14610125575b600080fd5b34801561008c57600080fd5b506100a760048036038101906100a29190610934565b6101ba565b6040516100b4919061097a565b60405180910390f35b3480156100c957600080fd5b506100d2610202565b6040516100df919061097a565b60405180910390f35b3480156100f457600080fd5b5061010f600480360381019061010a91906109c1565b6102a9565b60405161011c91906109fd565b60405180910390f35b61012d6102f1565b005b34801561013b57600080fd5b506101446105b5565b604051610151919061097a565b60405180910390f35b34801561016657600080fd5b5061016f6105c2565b60405161017c91906109fd565b60405180910390f35b34801561019157600080fd5b5061019a6105ea565b6040516101a79190610a77565b60405180910390f35b6101b8610614565b005b60008060008373ffffffffffffffffffffffffffffffffffffffff1673ffffffffffffffffffffffffffffffffffffffff168152602001908152602001600020549050919050565b6000600260009054906101000a900473ffffffffffffffffffffffffffffffffffffffff1673ffffffffffffffffffffffffffffffffffffffff166354fd4d506040518163ffffffff1660e01b815260040160206040518083038186803b15801561026c57600080fd5b505afa158015610280573d6000803e3d6000fd5b505050506040513d601f19601f820116820180604052508101906102a49190610aa7565b905090565b6000600182815481106102bf576102be610ad4565b5b9060005260206000200160009054906101000a900473ffffffffffffffffffffffffffffffffffffffff169050919050565b7f000000000000000000000000000000000000000000000000000000000000000073ffffffffffffffffffffffffffffffffffffffff163373ffffffffffffffffffffffffffffffffffffffff1614610376576040517f579610db00000000000000000000000000000000000000000000000000000000815260040160405180910390fd5b600060018054806020026020016040519081016040528092919081815260200182805480156103fa57602002820191906000526020600020905b8160009054906101000a900473ffffffffffffffffffffffffffffffffffffffff1673ffffffffffffffffffffffffffffffffffffffff16815260200190600101908083116103b0575b5050505050905060005b815181101561048457600082828151811061042257610421610ad4565b5b6020026020010151905060008060008373ffffffffffffffffffffffffffffffffffffffff1673ffffffffffffffffffffffffffffffffffffffff1681526020019081526020016000208190555050808061047c90610b32565b915050610404565b50600067ffffffffffffffff8111156104a05761049f610b7b565b5b6040519080825280602002602001820160405280156104ce5781602001602082028036833780820191505090505b50600190805190602001906104e492919061082a565b5060007f000000000000000000000000000000000000000000000000000000000000000073ffffffffffffffffffffffffffffffffffffffff164760405161052b90610bdb565b60006040518083038185875af1925050503d8060008114610568576040519150601f19603f3d011682016040523d82523d6000602084013e61056d565b606091505b50509050806105b1576040517f08c379a00000000000000000000000000000000000000000000000000000000081526004016105a890610c4d565b60405180910390fd5b5050565b6802b5e3af16b188000081565b60007f0000000000000000000000000000000000000000000000000000000000000000905090565b6000600260009054906101000a900473ffffffffffffffffffffffffffffffffffffffff16905090565b6802b5e3af16b1880000610653600260009054906101000a900473ffffffffffffffffffffffffffffffffffffffff163461074e90919063ffffffff16565b1015610694576040517f08c379a000000000000000000000000000000000000000000000000000000000815260040161068b90610cb9565b60405180910390fd5b346000803373ffffffffffffffffffffffffffffffffffffffff1673ffffffffffffffffffffffffffffffffffffffff16815260200190815260200160002060008282546106e29190610cd9565b925050819055506001339080600181540180825580915050600190039060005260206000200160009091909190916101000a81548173ffffffffffffffffffffffffffffffffffffffff021916908373ffffffffffffffffffffffffffffffffffffffff160217905550565b60008061075a8361078a565b90506000670de0b6b3a764000085836107739190610d2f565b61077d9190610db8565b9050809250505092915050565b6000808273ffffffffffffffffffffffffffffffffffffffff1663feaf968c6040518163ffffffff1660e01b815260040160a06040518083038186803b1580156107d357600080fd5b505afa1580156107e7573d6000803e3d6000fd5b505050506040513d601f19601f8201168201806040525081019061080b9190610e61565b5050509150506402540be400816108229190610edc565b915050919050565b8280548282559060005260206000209081019282156108a3579160200282015b828111156108a25782518260006101000a81548173ffffffffffffffffffffffffffffffffffffffff021916908373ffffffffffffffffffffffffffffffffffffffff1602179055509160200191906001019061084a565b5b5090506108b091906108b4565b5090565b5b808211156108cd5760008160009055506001016108b5565b5090565b600080fd5b600073ffffffffffffffffffffffffffffffffffffffff82169050919050565b6000610901826108d6565b9050919050565b610911816108f6565b811461091c57600080fd5b50565b60008135905061092e81610908565b92915050565b60006020828403121561094a576109496108d1565b5b60006109588482850161091f565b91505092915050565b6000819050919050565b61097481610961565b82525050565b600060208201905061098f600083018461096b565b92915050565b61099e81610961565b81146109a957600080fd5b50565b6000813590506109bb81610995565b92915050565b6000602082840312156109d7576109d66108d1565b5b60006109e5848285016109ac565b91505092915050565b6109f7816108f6565b82525050565b6000602082019050610a1260008301846109ee565b92915050565b6000819050919050565b6000610a3d610a38610a33846108d6565b610a18565b6108d6565b9050919050565b6000610a4f82610a22565b9050919050565b6000610a6182610a44565b9050919050565b610a7181610a56565b82525050565b6000602082019050610a8c6000830184610a68565b92915050565b600081519050610aa181610995565b92915050565b600060208284031215610abd57610abc6108d1565b5b6000610acb84828501610a92565b91505092915050565b7f4e487b7100000000000000000000000000000000000000000000000000000000600052603260045260246000fd5b7f4e487b7100000000000000000000000000000000000000000000000000000000600052601160045260246000fd5b6000610b3d82610961565b91507fffffffffffffffffffffffffffffffffffffffffffffffffffffffffffffffff821415610b7057610b6f610b03565b5b600182019050919050565b7f4e487b7100000000000000000000000000000000000000000000000000000000600052604160045260246000fd5b600081905092915050565b50565b6000610bc5600083610baa565b9150610bd082610bb5565b600082019050919050565b6000610be682610bb8565b9150819050919050565b600082825260208201905092915050565b7f43616c6c206661696c6564000000000000000000000000000000000000000000600082015250565b6000610c37600b83610bf0565b9150610c4282610c01565b602082019050919050565b60006020820190508181036000830152610c6681610c2a565b9050919050565b7f596f75206e65656420746f207370656e64206d6f726520455448210000000000600082015250565b6000610ca3601b83610bf0565b9150610cae82610c6d565b602082019050919050565b60006020820190508181036000830152610cd281610c96565b9050919050565b6000610ce482610961565b9150610cef83610961565b9250827fffffffffffffffffffffffffffffffffffffffffffffffffffffffffffffffff03821115610d2457610d23610b03565b5b828201905092915050565b6000610d3a82610961565b9150610d4583610961565b9250817fffffffffffffffffffffffffffffffffffffffffffffffffffffffffffffffff0483118215151615610d7e57610d7d610b03565b5b828202905092915050565b7f4e487b7100000000000000000000000000000000000000000000000000000000600052601260045260246000fd5b6000610dc382610961565b9150610dce83610961565b925082610dde57610ddd610d89565b5b828204905092915050565b600069ffffffffffffffffffff82169050919050565b610e0881610de9565b8114610e1357600080fd5b50565b600081519050610e2581610dff565b92915050565b6000819050919050565b610e3e81610e2b565b8114610e4957600080fd5b50565b600081519050610e5b81610e35565b92915050565b600080600080600060a08688031215610e7d57610e7c6108d1565b5b6000610e8b88828901610e16565b9550506020610e9c88828901610e4c565b9450506040610ead88828901610a92565b9350506060610ebe88828901610a92565b9250506080610ecf88828901610e16565b9150509295509295909350565b6000610ee782610e2b565b9150610ef283610e2b565b9250827f7fffffffffffffffffffffffffffffffffffffffffffffffffffffffffffffff0482116000841360008413161615610f3157610f30610b03565b5b817f80000000000000000000000000000000000000000000000000000000000000000583126000841260008413161615610f6e57610f6d610b03565b5b827f80000000000000000000000000000000000000000000000000000000000000000582126000841360008412161615610fab57610faa610b03565b5b827f7fffffffffffffffffffffffffffffffffffffffffffffffffffffffffffffff0582126000841260008412161615610fe857610fe7610b03565b5b82820290509291505056fea2646970667358221220442516f3d275c8a7db16712e4d3aef6dcbbd8fa9102b12fe391ec9ca4ac6792e64736f6c63430008080033",
  "devdoc": {
    "author": "Maxime GOGNIES",
    "kind": "dev",
    "methods": {},
    "title": "A contract for crowd funding",
    "version": 1
  },
  "userdoc": {
    "kind": "user",
    "methods": {
      "fund()": {
        "notice": "This function funds this contract"
      }
    },
    "notice": "This contract is to demo a sample funding contract",
    "version": 1
  },
  "storageLayout": {
    "storage": [
      {
        "astId": 59,
        "contract": "contracts/FundMe.sol:FundMe",
        "label": "s_addressToAmountFunded",
        "offset": 0,
        "slot": "0",
        "type": "t_mapping(t_address,t_uint256)"
      },
      {
        "astId": 62,
        "contract": "contracts/FundMe.sol:FundMe",
        "label": "s_funders",
        "offset": 0,
        "slot": "1",
        "type": "t_array(t_address)dyn_storage"
      },
      {
        "astId": 74,
        "contract": "contracts/FundMe.sol:FundMe",
        "label": "s_priceFeed",
        "offset": 0,
        "slot": "2",
        "type": "t_contract(AggregatorV3Interface)45"
      }
    ],
    "types": {
      "t_address": {
        "encoding": "inplace",
        "label": "address",
        "numberOfBytes": "20"
      },
      "t_array(t_address)dyn_storage": {
        "base": "t_address",
        "encoding": "dynamic_array",
        "label": "address[]",
        "numberOfBytes": "32"
      },
      "t_contract(AggregatorV3Interface)45": {
        "encoding": "inplace",
        "label": "contract AggregatorV3Interface",
        "numberOfBytes": "20"
      },
      "t_mapping(t_address,t_uint256)": {
        "encoding": "mapping",
        "key": "t_address",
        "label": "mapping(address => uint256)",
        "numberOfBytes": "32",
        "value": "t_uint256"
      },
      "t_uint256": {
        "encoding": "inplace",
        "label": "uint256",
        "numberOfBytes": "32"
      }
    }
  }
}